S01100005175657374696F6E342E7372656387
S113000045C0000060C000005EC000005DC000008C
S11300106DC0000058C0000056C000008CC0000035
S1130020A2C0000050C000004EC000004CC0000040
S11300304AC0000048C0000046C0000044C00000A0
S113004042C0000040C000003EC000003CC00000B0
S11300503AC0000038C0000036C0000034C00000C0
S113006032C0000030C000002EC000002CC00000D0
S11300702AC0000028C0000026C0000024C00000E0
S113008022C0000020C000001EC0000011241FBEBA
S1130090CFEFD0E1DEBFCDBF11E0A0E0B1E0E6E8F4
S11300A0F4E000E00BBF02C007900D92AA30B10744
S11300B0D9F721E0AAE0B1E001C01D92A831B2074E
S11300C0E1F770D1DEC19CCF1F920F920FB60F9251
S11300D011248F9381E080930A0180930B0178941B
S11300E08F910F900FBE0F901F9018951F920F9233
S11300F00FB60F9211248F939F93AF93BF9382E017
S113010080930A018FE097E2A0E0B0E080930C01B5
S113011090930D01A0930E01B0930F0181E08093A1
S11301200B017894BF91AF919F918F910F900FBE67
S11301300F901F9018951F920F920FB60F921124D3
S11301408F9310920C0110920D0110920E011092D7
S11301500F0181E080930B0178948F910F900FBE73
S11301600F901F9018951F920F920FB60F921124A3
S11301708F939F93AF93BF938FE097E2A0E0B0E09B
S113018080930C0190930D01A0930E01B0930F0185
S113019081E080930B017894BF91AF919F918F91EF
S11301A00F900FBE0F901F9018958FEF87BB11BA59
S11301B098E092BB12B890E893B98ABB84BB0895C7
S11301C08FB780688FBF8CEC89BF80EA80936A0008
S11301D08ABF0895DC01189620E030E041E050E049
S11301E0CA01022E02C0880F991F0A94E2F785BB48
S11301F0FE91EE91E050FF4F908190959BBB8FE173
S11302009EE40197F1F700C000002F5F3F4F2430B8
S1130210310531F708958F929F92AF92BF92CF929A
S1130220DF92EF92FF92CF93DF93C0900C01D090B6
S11302300D01E0900E01F0900F01C0E1D1E0C70183
S1130240B60128EE33E040E050E0F9D0398328834A
S11302500F2EF4E68F2E912CA12CB12CF02DA5019C
S11302609401EDD03B832A83C701B601A501940113
S1130270E6D00F2EFAE08F2E912CA12CB12CF02D6C
S1130280A5019401DCD03D832C83C701B601A501EF
S11302909401D5D07F836E8380E1C81687E2D806A7
S11302A0E104F10441F410920C0110920D0110923A
S11302B00E0110920F01DF91CF91FF90EF90DF902C
S11302C0CF90BF90AF909F908F9008958F929F9200
S11302D0AF92BF92CF92DF92EF92FF92CF93DF93D0
S11302E0C0900C01D0900D01E0900E01F0900F0130
S11302F0C0E1D1E0C701B60120E137E240E050E0BF
S11303009ED00F2EF8EE8F2EF3E09F2EA12CB12C51
S1130310F02DA501940193D039832883C701B60138
S1130320A50194018CD00F2EF4E68F2E912CA12CD4
S1130330B12CF02DA501940182D03B832A83C701FF
S1130340B601A50194017BD00F2EFAE08F2E912CDB
S1130350A12CB12CF02DA501940171D03D832C83E7
S1130360C701B601A50194016AD07F836E83CD28AD
S1130370CE28CF2861F480E197E2A0E0B0E080933A
S11303800C0190930D01A0930E01B0930F01DF9126
S1130390CF91FF90EF90DF90CF90BF90AF909F9060
S11303A08F90089502DF0CDF80910B01813009F0FA
S11303B03FC080910A01813011F42DDF39C08230B1
S11303C0B9F584DF35C080E191E004DF2197D9F7E6
S11303D080910B01813041F780910A01813059F5F8
S11303E080910C0190910D01A0910E01B0910F012B
S11303F00196A11DB11D80930C0190930D01A09352
S11304000E01B0930F01D0CF80910C0190910D019A
S1130410A0910E01B0910F010197A109B109809338
S11304200C0190930D01A0930E01B0930F01BCCF6A
S1130430C2E3D0E0C8CF823009F0B6CFE5CFA1E265
S11304401A2EAA1BBB1BFD010DC0AA1FBB1FEE1F4A
S1130450FF1FA217B307E407F50720F0A21BB30B95
S1130460E40BF50B661F771F881F991F1A9469F711
S113047060957095809590959B01AC01BD01CF016D
S10904800895F894FFCF7B
S10D04863F065B4F666D7C077F6F35
S9030000FC
