S0170000436F6D706172654D61746368494E542E737265636E
S113000045C0000053C0000051C000004FC00000B4
S11300104DC000004BC0000049C0000047C00000B4
S113002045C0000043C0000041C000003FC00000C4
S11300303EC000003BC0000039C0000037C00000D3
S113004035C0000033C0000031C000002FC00000E4
S11300502DC000002BC0000029C0000027C00000F4
S113006025C0000023C0000021C000001FC0000004
S11300701DC000001BC0000019C0000017C0000014
S113008015C0000013C0000011C0000011241FBEE1
S1130090CFEFD0E1DEBFCDBF21E0A0E0B1E001C0F1
S11300A01D92A130B207E1F71FD02CC0A9CF1F9237
S11300B00F920FB60F9211248F939F93809100019A
S11300C091E0811190E090930001811103C080E1DF
S11300D088BB01C018BA1DBC1CBC9F918F910F90A6
S11300E00FBE0F901F901895BC9A18BA8FEF9FE718
S11300F09BBD8ABD8EB584608EBD87B7806187BF86
S10B01007894FFCFF894FFCFBF
S9030000FC
