S0140000466966746850726F6772616D2E7372656347
S113000045C0000060C000005EC000005CC000008D
S11300105AC0000058C0000056C0000054C0000080
S113002052C0000050C000004EC000004CC0000090
S11300304AC0000048C0000046C0000044C00000A0
S113004042C0000040C000003EC000003CC00000B0
S11300503AC0000038C0000036C0000034C00000C0
S113006032C0000030C000002EC000002CC00000D0
S11300702AC0000028C0000026C0000024C00000E0
S113008022C0000020C000001EC0000011241FBEBA
S1130090CFEFD0E1DEBFCDBF11E0A0E0B1E0EAE1F7
S11300A0F2E000E00BBF02C007900D92A235B10749
S11300B0D9F721E0A2E5B1E001C01D92A835B2074D
S11300C0E1F71DD0A8C09CCF803269F018F48031CC
S11300D031F00895803459F0803869F008958EE045
S11300E091E069C008958FE191E065C0089580E3CF
S11300F091E061C0089581E491E05DC00895CF93DB
S1130100DF9300D000D0CDB7DEB780E091E09093CC
S113011055018093540187E690E03FD080E18983C4
S113012080E28A8380E48B8380E88C8380EF87BBC2
S11301307E0125E0E20EF11C8E010F5F1F4FF801D6
S1130140D8018D918D0188BB8081BEDFBFEF29E688
S113015088E1B15020408040E1F700C000000E1556
S11301601F0569F78B8188BB8B81AEDF9FEFA9E602
S1130170B8E19150A040B040E1F700C000008A818E
S113018088BB8A81A1DF2FEF89E698E12150804066
S11301909040E1F700C00000CFCF1BB828E92AB98E
S11301A026E0209395009093900089B908955D9B73
S11301B0FECF8CB908950F931F93CF93DF93E091F3
S11301C05401F0915501238121FF1BC08C01D0E023
S11301D0C0E0F80181918F01609154017091550143
S11301E0DB011896ED91FC911997882331F009955C
S11301F0892B79F3DFEFCFEFECCF8AE00995892BD8
S113020019F08FEF9FEF02C08D2F9C2FDF91CF91BC
S10D02101F910F910895F894FFCF99
S113021A0000000200000000D700000000004C4566
S113022A44204F4E3A205820582058204F0D004C55
S113023A4544204F4E3A20582058204F20580D004C
S113024A4C4544204F4E3A2058204F205820580DF0
S113025A004C4544204F4E3A204F205820582058ED
S105026A0D0081
S9030000FC
