:1000000045C0000060C000005EC000005DC0000090
:1000100078C0000058C0000056C0000092C0000028
:10002000C9C0000050C000004EC000004CC000001D
:100030004AC0000048C0000046C0000044C00000A4
:1000400042C0000040C000003EC000003CC00000B4
:100050003AC0000038C0000036C0000034C00000C4
:1000600032C0000030C000002EC000002CC00000D4
:100070002AC0000028C0000026C0000024C00000E4
:1000800022C0000020C000001EC0000011241FBEBE
:10009000CFEFD0E1DEBFCDBF11E0A0E0B1E0E2E103
:1000A000F4E000E00BBF02C007900D92AA30B10748
:1000B000D9F721E0AAE0B1E001C01D92A931B20751
:1000C000E1F718D1A4C19CCF1F920F920FB60F92E7
:1000D00011248F9381E080930A01109218011092ED
:1000E000170110920B0110920C0110920D01109249
:1000F0000E0185BB78948F910F900FBE0F901F90CB
:1001000018951F920F920FB60F9211248F939F9301
:10011000809117019091180101968430910529F082
:10012000909318018093170104C010921801109247
:10013000170178949F918F910F900FBE0F901F9091
:1001400018951F920F920FB60F9211240BB60F92B3
:100150002F933F938F939F93EF93FF93809117017A
:1001600090911801FC01EE0FFF1FE15FFE4F20810F
:1001700031812F5F3F4F2A30310541F0880F991FA1
:10018000FC01E15FFE4F3183208307C0880F991F78
:10019000FC01E15FFE4F11821082FF91EF919F9170
:1001A0008F913F912F910F900BBE0F900FBE0F902C
:1001B0001F9018951F920F920FB60F9211248F93D4
:1001C00082E080930A018F910F900FBE0F901F90D5
:1001D00018958FEF87BB11BA98E092BB12B890E8E0
:1001E00093B98ABB84BB08958FB780688FBF8CECAE
:1001F00089BF80EA80936A008ABF0895DC0118965F
:1002000020E030E041E050E0CA01022E02C0880F39
:10021000991F0A94E2F785BBFE91EE91E050FF4FE3
:10022000908190959BBB8FE19EE40197F1F700C010
:1002300000002F5F3F4F2430310531F708958F9232
:100240009F92AF92BF92CF92DF92EF92FF92CF93A5
:10025000DF93C0900B01D0900C01E0900D01F09065
:100260000E01CFE0D1E0C701B60128EE33E040E057
:1002700050E0ABD0398328830F2EF4E68F2E912CDB
:10028000A12CB12CF02DA50194019FD03B832A8392
:10029000C701B601A501940198D00F2EFAE08F2E68
:1002A000912CA12CB12CF02DA50194018ED03D8371
:1002B0002C83C701B601A501940187D07F836E838B
:1002C00080E1C81687E2D806E104F10441F41092F7
:1002D0000B0110920C0110920D0110920E01DF9192
:1002E000CF91FF90EF90DF90CF90BF90AF909F9015
:1002F0008F9008956EDF78DF0F2EF7E1EF2EF1E09B
:10030000FF2EF02D01E010E0DD24DA9480910A0147
:100310008130E1F5EFE0F1E0A681B781A050BF4F59
:100320008C9180958BBBA481B581A050BF4F8C91DF
:1003300080958BBBA281B381A050BF4F8C918095DB
:100340008BBB0190F081E02DE050FF4F80818095C4
:100350008BBBC801F701008002C0880F991F0A9467
:10036000E2F785BBFFEF29E688E1F15020408040AD
:10037000E1F700C00000DBBA9FEFE9E6F8E1915039
:10038000E040F040E1F700C00000C0CF823009F04B
:10039000BDCF55DFC5E0D0E08FE091E02FDF2197A2
:1003A000D9F780910B0190910C01A0910D01B091B2
:1003B0000E010196A11DB11D80930B0190930C01BC
:1003C000A0930D01B0930E01A1CFA1E21A2EAA1B9A
:1003D000BB1BFD010DC0AA1FBB1FEE1FFF1FA217F5
:1003E000B307E407F50720F0A21BB30BE40BF50BF2
:1003F000661F771F881F991F1A9469F7609570957B
:10040000809590959B01AC01BD01CF010895F894B2
:02041000FFCF1C
:0A0412003F065B4F666D7C077F6FAD
:00000001FF
