S013000054696D657253797374656D2E737265638B
S113000045C0000060C000005EC000000CC10000DC
S113001043C1000058C0000056C000007CC100006D
S11300200FC2000050C000004EC000004CC00000D1
S113003092C0000048C0000046C0000061C000003B
S113004042C0000040C000003EC000003CC00000B0
S11300503AC0000038C0000036C0000034C00000C0
S113006032C0000030C0000091C000002CC000006D
S11300702AC0000028C0000026C0000024C00000E0
S113008022C0000020C000001EC0000011241FBEBA
S1130090CFEFD0E1DEBFCDBF11E0A0E0B1E0EEE5EF
S11300A0FCE000E00BBF02C007900D92AC35B10735
S11300B0D9F721E0ACE5B1E001C01D92AC36B2073E
S11300C0E1F7B9D2CAC59CCF5D9BFECF8CB9089528
S11300D01BB828E92AB926E0209395009093900054
S11300E089B90895CF93DF93EC018881882329F09F
S11300F02196EADF89918111FCCFDF91CF91089598
S11301001F920F920FB60F9211242F938F939F93E8
S113011080915D0190915E01019690935E018093C0
S11301205D01853F21E0920720F481E08093600126
S11301300AC0893E934018F41092600104C01092E2
S11301405E0110925D019F918F912F910F900FBED0
S11301500F901F9018951F920F920FB60F921124B3
S11301608F9380915C018F5F80935C018B3018F4D6
S113017010925F0105C081E080935F0110925C01E1
S11301808F910F900FBE0F901F9018951F920F9292
S11301900FB60F9211242F938F939F93AF93BF9316
S11301A08091610190916201A0916301B091640119
S11301B00196A11DB11D8093610190936201A093EA
S11301C06301B09364018091610190916201A091F7
S11301D06301B091640180319742A105B10540F0FB
S11301E010926101109262011092630110926401F5
S11301F0BF91AF919F918F912F910F900FBE0F9050
S11302001F9018958DE191E06DDF81E087BB88BB7D
S11302102FEF84E39CE0215080409040E1F700C040
S1130220000018BA08951F920F920FB60F9211246E
S11302300BB60F922F933F934F935F936F937F93DC
S11302408F939F93AF93BF93EF93FF9310926501A6
S113025081E080930E01D6DF80910E011F928F936F
S11302608BE291E09F938F930AD20F900F900F909F
S11302700F90FF91EF91BF91AF919F918F917F91DB
S11302806F915F914F913F912F910F900BBE0F9003
S11302900FBE0F901F9018951F920F920FB60F92DA
S11302A011240BB60F922F933F934F935F936F9349
S11302B07F938F939F93AF93BF93EF93FF9380911B
S11302C065018F5F8093650180916501843010F032
S11302D01092650197DF809165011F928F9380E3EF
S11302E091E09F938F93CBD10F900F900F900F902D
S11302F0FF91EF91BF91AF919F918F917F916F91FA
S11303005F914F913F912F910F900BBE0F900FBEB5
S11303100F901F9018951F920F920FB60F921124F1
S11303200BB60F922F933F934F935F936F937F93EB
S11303308F939F93AF93BF93EF93FF93E0916501E6
S1130340F0E0E050FF4F80818F5F8083E091650192
S1130350F0E0E050FF4F80818A3338F0E09165018E
S1130360F0E0E050FF4F80E38083E0E0F1E02381A0
S113037030E02053310988EE93E0289FA001299FA3
S1130380500D389F500D1124228130E02053310943
S113039064E6629FC001639F900D1124480F591FAA
S11303A0218130E0C901C097BC01660F771F9C0111
S11303B0220F331F220F331F220F331FCB01820F53
S11303C0931F840F951F208130E020533109820F41
S11303D0931F092E000CAA0BBB0B80936101909311
S11303E06201A0936301B09364010CDF8091610109
S11303F090916201A0916301B0916401BF93AF93A6
S11304009F938F9384E391E09F938F9338D10F90C0
S11304100F900F900F900F900F90FF91EF91BF915D
S1130420AF919F918F917F916F915F914F913F9188
S11304302F910F900BBE0F900FBE0F901F90189529
S11304401F920F920FB60F9211240BB60F922F9397
S11304503F934F935F936F937F938F939F93AF9348
S1130460BF93EF93FF9382E080930E01CBDE8091E4
S11304700E011F928F938BE291E09F938F93FFD095
S11304800F900F900F900F90FF91EF91BF91AF914C
S11304909F918F917F916F915F914F913F912F9198
S11304A00F900BBE0F900FBE0F901F90189583EF07
S11304B081BB8FE382B98CE082BB80EC83B980EA94
S11304C080936A008ABF8CEC89BF08958FEF8ABB42
S11304D08FE084BB08958FE091E09093690180934D
S11304E0680188E690E0F4DDE2DFF0DF8FB7806832
S11304F08FBF089583B78C6083BF89EF81BF87B7AF
S1130500826087BF089583B783BF11BE87B78D7F8D
S113051087BF08958EB58B608EBD88E190E09BBD4A
S11305208ABD80E187BF0895EAE8F0E080818B60AE
S1130530808387EA91E6909387008093860080E128
S113054080937D00089580916501813081F028F0C9
S11305508230B9F08330F9F0089581E085BBE091F1
S11305600001F0E0EC52FF4F80818BBB089582E0E4
S113057085BBE0910101F0E0EC52FF4F80818BBB21
S1130580089584E085BBE0910201F0E0EC52FF4F56
S113059080818BBB089588E085BBE0910301F0E086
S11305A0EC52FF4F80818BBB089580916101909143
S11305B06201A0916301B0916401BF93AF939F93D3
S11305C08F9386E591E09F938F9380E091E09F93D2
S11305D08F9368D080915F012DB73EB7285F3F4F5E
S11305E00FB6F8943EBF0FBE2DBF882319F120919A
S11305F0650181E090E002C0880F991F2A95E2F717
S113060085BB80916501E3E0F0E0E81BF109E0506F
S1130610FF4FE081F0E0EC52FF4F80818BBB809173
S113062065018F5F8093650180916501843010F0CE
S11306301092650108954FDF1FEFC1E0D0E0809173
S11306400E01813019F08230A9F0FBCF53DF7BDF3C
S113065080916001882359F01ABB809165019E0145
S113066002C0220F331F8A95E2F725BBE8CF15BAE3
S11306701ABAE5CF48DF4EDF57DF97DFE0CFCF93DD
S1130680DF93CDB7DEB7AE014B5F5F4FFA016191E7
S11306907191AF01809168019091690131D0DF912E
S11306A0CF9108950F931F93CF93DF93CDB7DEB708
S11306B02E970FB6F894DEBF0FBECDBF0D891E89ED
S11306C086E08C831A8309838FEF9FE79E838D8353
S11306D0AE01475E5F4F6F89788DCE01019610D0D1
S11306E0EF81F885E00FF11F10822E960FB6F89473
S11306F0DEBF0FBECDBFDF91CF911F910F91089543
S11307002F923F924F925F926F927F928F929F921D
S1130710AF92BF92CF92DF92EF92FF920F931F930B
S1130720CF93DF93CDB7DEB72B970FB6F894DEBF28
S11307300FBECDBF6C017B018A01FC0117821682BA
S1130740838181FFBFC1CE0101963C01F6019381F3
S1130750F70193FD859193FF81917F01882309F42B
S1130760ADC1853239F493FD859193FF81917F0169
S1130770853221F4B60190E0D6D1E8CF912C212C1A
S1130780312CFFE1F315D8F08B3279F038F4803254
S113079079F08332A1F4232D20611DC08D3261F0E4
S11307A0803369F4232D216016C0832D8260382E96
S11307B0E32DE4603E2E2AC0F32DF8601DC037FC03
S11307C02DC020ED280F2A3040F08E32B9F436FCCB
S11307D075C1232D2064322E19C036FE06C08AE06E
S11307E0989E200D1124922E11C0EAE02E9E200D19
S11307F01124222EF32DF0623F2E08C08C3621F4F2
S1130800832D8068382E02C0883641F4F70193FDA9
S1130810859193FF81917F018111B3CF982F9F7DA3
S11308209554933028F40C5F1F4F9FE399830DC0B8
S1130830833631F0833771F0833509F055C020C019
S1130840F801808189830E5F1F4F88248394912C43
S1130850530112C02801F2E04F0E511CF801A08090
S1130860B18036FE03C0692D70E002C06FEF7FEFE8
S1130870C5014ED14C018201F32DFF773F2E15C0E7
S1130880280122E0420E511CF801A080B18036FEFE
S113089003C0692D70E002C06FEF7FEFC5012DD159
S11308A04C01F32DF0683F2E820133FC19C0822DD8
S11308B090E088169906A0F4B60180E290E033D166
S11308C02A94F5CFF50137FC859137FE81915F01BC
S11308D0B60190E028D121102A9421E0821A9108CF
S11308E08114910479F7E1C0843611F0893639F521
S11308F0F80137FE07C060817181828193810C5FAA
S11309001F4F08C060817181072E000C880B990B62
S11309100E5F1F4FF32DFF763F2E97FF09C0909572
S11309208095709561957F4F8F4F9F4FF0683F2E54
S11309302AE030E0A30133D1882E861844C08537DD
S113094031F4232D2F7EB22E2AE030E025C0932DE2
S1130950997FB92E8F36C1F018F4883579F0AEC07E
S1130960803719F0883721F0A9C0E92FE061BE2E45
S1130970B4FE0DC0FB2DF460BF2E09C034FE0AC0C6
S1130980292F2660B22E06C028E030E005C020E101
S113099030E002C020E132E0F801B7FE07C0608118
S11309A07181828193810C5F1F4F06C060817181C8
S11309B080E090E00E5F1F4FA301F1D0882E8618CF
S11309C0FB2DFF773F2E36FE0DC0232D2E7FA22E4A
S11309D0891458F434FE0BC032FC09C0832D8E7E7A
S11309E0A82E05C0B82CA32C03C0B82C01C0B92C68
S11309F0A4FE0FC0FE01E80DF11D8081803321F4B7
S1130A009A2D997EA92E09C0A2FE06C0B394B39470
S1130A1004C08A2D867809F0B394A3FC10C0A0FE0C
S1130A2006C0B21480F4280C922C9B180DC0B2148A
S1130A3058F4B60180E290E076D0B394F8CFB214C3
S1130A4018F42B1802C0982C212CA4FE0FC0B60158
S1130A5080E390E068D0A2FE16C0A1FC03C088E742
S1130A6090E002C088E590E0B6010CC08A2D86783B
S1130A7051F0A1FE02C08BE201C080E2A7FC8DE22E
S1130A80B60190E050D0891430F4B60180E390E0D0
S1130A904AD09A94F8CF8A94F301E80DF11D80812D
S1130AA0B60190E040D08110F6CF222009F44ECE5A
S1130AB0B60180E290E037D02A94F7CFF601868120
S1130AC0978102C08FEF9FEF2B960FB6F894DEBF8D
S1130AD00FBECDBFDF91CF911F910F91FF90EF908B
S1130AE0DF90CF90BF90AF909F908F907F906F904A
S1130AF05F904F903F902F900895FC0105906150B6
S1130B0070400110D8F7809590958E0F9F1F08951F
S1130B10FC016150704001900110D8F780959095C8
S1130B208E0F9F1F08950F931F93CF93DF93FB01A5
S1130B30238121FD03C08FEF9FEF2CC022FF16C03D
S1130B4046815781248135814217530744F4A0819B
S1130B50B1819D012F5F3F4F318320838C93268188
S1130B6037812F5F3F4F3783268314C08B01EC01FD
S1130B70FB010084F185E02D0995892BE1F6D8016C
S1130B8016968D919C911797019617969C938E9328
S1130B901697CE01DF91CF911F910F910895FA011D
S1130BA0AA27283051F1203181F1E8946F936E7FA8
S1130BB06E5F7F4F8F4F9F4FAF4FB1E03ED0B4E099
S1130BC03CD0670F781F891F9A1FA11D680F791FDA
S1130BD08A1F911DA11D6A0F711D811D911DA11DEB
S1130BE020D009F468943F912AE0269F11243019FB
S1130BF0305D3193DEF6CF010895462F4770405D96
S1130C004193B3E00FD0C9F7F6CF462F4F70405D44
S1130C104A3318F0495D31FD4052419302D0A9F79F
S1130C20EACFB4E0A6959795879577956795BA9599
S1130C30C9F700976105710508959B01AC010A2E5F
S1130C4006945795479537952795BA95C9F7620F36
S1110C50731F841F951FA01D0895F894FFCFF5
S1130C5E30303030C0F9A4B0999282F880900100FF
S1130C6E0000020000000064000000000053572042
S1130C7E70726573736564210D0A002564200A0081
S1130C8E25640A0053746F72656420666E64207363
S1130C9E74617274206E756D6265722069733A2088
S10F0CAE256C75200A002530346C75009C
S9030000FC
