S01100005175657374696F6E312E737265638A
S113000045C0000060C000005EC000005DC000008C
S113001067C0000058C0000056C0000070C0000057
S11300208AC0000050C000004EC000004CC0000058
S11300304AC0000048C0000046C000008BC0000059
S113004042C0000040C000003EC000003CC00000B0
S11300503AC0000038C0000036C0000034C00000C0
S113006032C0000030C000002EC000002CC00000D0
S11300702AC0000028C0000026C0000024C00000E0
S113008022C0000020C000001EC0000011241FBEBA
S1130090CFEFD0E1DEBFCDBF11E0A0E0B1E0EAE1F7
S11300A0F2E000E00BBF02C007900D92A230B1074E
S11300B0D9F721E0A2E0B1E001C01D92A330B2075C
S11300C0E1F7A7D0A8C09CCF1F920F920FB60F9252
S11300D01124109201010F900FBE0F901F901895DC
S11300E01F920F920FB60F9211248F9381E0809389
S11300F001018F910F900FBE0F901F9018951F92C2
S11301000F920FB60F9211248F939F938091010148
S113011090E0019681709078992324F401978E6F72
S11301209F6F0196809301019F918F910F900FBE55
S11301300F901F9018951F920F920FB60F921124D3
S11301408F9382E0809301018F910F900FBE0F90E7
S11301501F9018951F920F920FB60F9211242F9390
S11301603F938F939F93809102018F5F809302014D
S113017012BE80910201843631F580910101811112
S11301800EC08091000190910001282F269530E83F
S1130190939FC0011124822B809300010FC0809192
S11301A00101813059F49091000180910001990F6F
S11301B0881F8827881F892B809300018091000164
S11301C088BB109202019F918F913F912F910F90C4
S11301D00FBE0F901F9018958FEF87BB11BA12B8FE
S11301E088E082BB80E883B989B78C6C89BFEAE672
S11301F0F0E08081806A80838AB7806A8ABF87B78B
S1130200826087BF83B7846083BF89EF81BF78949E
S10D02100895E2DFFFCFF894FFCF5A
S105021A0103DA
S9030000FC
