:100000000C9446000C9465000C9465000C946700F9
:100010000C9488000C9465000C9465000C94A4006A
:100020000C94B2000C9465000C9465000C9465006F
:100030000C9465000C9465000C9465000C946500AC
:100040000C9465000C9465000C9465000C9465009C
:100050000C9465000C9465000C9465000C9465008C
:100060000C9465000C9465000C9465000C9465007C
:100070000C9465000C9465000C9465000C9465006C
:100080000C9465000C9465000C94650011241FBE4F
:10009000CFEFD0E1DEBFCDBF11E0A0E0B1E0E4E6FC
:1000A000F8E000E00BBF02C007900D92A031B1074D
:1000B000D9F711E0A0E1B1E001C01D92A231B10772
:1000C000E1F70E94C6000C9430040C9400001F92CB
:1000D0000F920FB60F9211242F938F939F938091BD
:1000E00010019091110101969093110180931001DC
:1000F00027E28031920721F4109211011092100131
:100100009F918F912F910F900FBE0F901F90189578
:100110001F920F920FB60F9211248F939F9380918D
:10012000100190911101009711F0019702C08FE02A
:1001300097E290931101809310019F918F910F90FE
:100140000FBE0F901F9018951F920F920FB60F922F
:10015000112410921101109210010F900FBE0F90F8
:100160001F9018951F920F920FB60F9211248F9324
:100170009F938FE097E290931101809310019F91DC
:100180008F910F900FBE0F901F901895AF92BF9256
:10019000CF92DF92EF92FF920F931F93DF93CF9353
:1001A00000D000D00F92CDB7DEB78FEF8ABB84BBF3
:1001B00011BA12B888E082BB80E883B980EA8093E4
:1001C0006A008ABF8CEC89BF8FB780688FBF7E01C1
:1001D0000894E11CF11C00E011E0AA24A39422E0A1
:1001E000B22E94E0C92E88E0D82E00D000D000D0E6
:1001F000EDB7FEB73196ADB7BEB71296FC92EE9250
:1002000011971383028380911001909111019583BE
:1002100084830E945001A5BAEC81FF27E7FDF09589
:10022000EB52FF4F80818BBB8FE19EE40197F1F78A
:1002300000C00000B5BAEB81FF27E7FDF095EB5257
:10024000FF4F80818BBBAFE1BEE41197F1F700C097
:100250000000C5BAEA81FF27E7FDF095EB52FF4F9A
:1002600080818BBB8FE19EE40197F1F700C0000015
:10027000D5BAE981FF27E7FDF095EB52FF4F80816A
:100280008BBBAFE1BEE41197F1F700C000008DB762
:100290009EB706960FB6F8949EBF0FBE8DBFA5CF32
:1002A0000F931F93DF93CF93CDB7DEB72E970FB683
:1002B000F894DEBF0FBECDBF0D891E8986E08C830A
:1002C0001A8309838FEF9FE79E838D839E01275EAC
:1002D0003F4FCE0101966F89788DA9010E94800160
:1002E000EF81F885E00FF11F10822E960FB6F8947B
:1002F000DEBF0FBECDBFCF91DF911F910F9108954B
:100300002F923F924F925F926F927F928F929F9225
:10031000AF92BF92CF92DF92EF92FF920F931F9313
:10032000DF93CF93CDB7DEB72C970FB6F894DEBF2F
:100330000FBECDBF6C011B018A01FC011782168222
:10034000838181FFD1C12E010894411C511CF6010B
:100350009381F10193FD859193FF81911F01882382
:1003600009F4BEC1853239F493FD859193FF8191E3
:100370001F01853229F490E0B6010E94A603E7CF61
:10038000EE24FF2420E02032B0F48B3269F08C326E
:1003900028F4803251F0833271F40BC08D3239F081
:1003A000803349F421602CC02260246029C0286079
:1003B00027C0206125C027FD2CC0382F30533A308C
:1003C00098F426FF08C08E2D880FE82EEE0CEE0C58
:1003D000E80EE30E15C08F2D880FF82EFF0CFF0CD2
:1003E000F80EF30E20620CC08E3221F426FD78C187
:1003F000206406C08C3611F4206802C0883649F4A7
:10040000F10193FD859193FF81911F01882309F0EC
:10041000BACF982F9554933018F09052933028F417
:100420000C5F1F4FFFE3F9830DC0833631F0833734
:1004300071F0833509F060C022C0F80180818983A2
:100440000E5F1F4F420171E0A72EB12C16C062E073
:10045000662E712C600E711EF8018080918026FF3F
:1004600003C06E2D70E002C06FEF7FEFC4012C87D8
:100470000E949B035C0183012C852F7717C052E0FB
:10048000652E712C600E711EF8018080918026FF10
:1004900003C06E2D70E002C06FEF7FEFC4012C87A8
:1004A0000E9490035C012C852068830123FD20C0FD
:1004B00008C080E290E0B6012C870E94A603FA945F
:1004C0002C858F2D90E0A816B90698F311C0F40181
:1004D00027FD859127FF81914F0190E0B6012C8780
:1004E0000E94A6032C85F110FA940894A108B10883
:1004F000A114B10461F7F1C0843611F0893649F5D1
:1005000027FF08C0F80160817181828193810C5FAF
:100510001F4F09C0F80160817181882777FD8095A0
:10052000982F0E5F1F4F4FE6B42EB22297FF09C0DF
:1005300090958095709561957F4F8F4F9F4FF0E814
:10054000BF2AA2012AE030E00E94D203782E74185C
:1005500045C0853731F43FEEB32EB2222AE030E0B9
:1005600025C099EFB92EB2228F36C1F0803720F422
:10057000883509F0B5C00DC0803721F0883709F003
:10058000AFC002C020E1B22AB4FE0BC084E0B82A9A
:1005900008C0B4FE09C0E6E0BE2A06C028E030E08C
:1005A00005C020E130E002C020E132E0B7FE08C023
:1005B000F80160817181828193810C5F1F4F07C0B8
:1005C000F8016081718180E090E00E5F1F4FA20111
:1005D0000E94D203782E7418FFE7BF22B6FE0BC02C
:1005E0002EEFB2227E1438F4B4FE07C0B2FC05C070
:1005F0008FEEB82202C0A72C01C0AE2C8B2D90E04C
:10060000B4FE0DC0FE01E70DF11D2081203319F469
:10061000E9EEBE2209C0A394B2FE06C004C08678EB
:100620009070009709F0A3948B2C9924B3FC14C00C
:10063000B0FE0FC0AF1428F4E72CEF0CEA18AF2C73
:1006400008C0E72C06C080E290E0B6010E94A60335
:10065000A394AF14C0F304C0AF1410F4FA1801C08F
:10066000FF2484FE0FC080E390E0B6010E94A60341
:1006700082FE1FC081FE03C088E590E010C088E7BD
:1006800090E00DC0C40186789070009791F081FCD5
:1006900002C080E201C08BE2B7FC8DE290E0B601BF
:1006A0000E94A60306C080E390E0B6010E94A60364
:1006B000EA947E14C0F37A94F201E70DF11D808173
:1006C00090E0B6010E94A6037720A9F706C080E259
:1006D00090E0B6010E94A603FA94FF20C1F737CE3E
:1006E000F6012681378102C02FEF3FEFC9012C961A
:1006F0000FB6F894DEBF0FBECDBFCF91DF911F9133
:100700000F91FF90EF90DF90CF90BF90AF909F90B0
:100710008F907F906F905F904F903F902F900895B3
:10072000FC010590615070400110D8F780959095BC
:100730008E0F9F1F0895FC016150704001900110C1
:10074000D8F7809590958E0F9F1F08950F931F9354
:10075000CF93DF938C01EB018B8181FF1BC082FF64
:100760000DC02E813F818C819D812817390764F44B
:10077000E881F9810193F983E88306C0E885F9856A
:10078000802F0995009731F48E819F8101969F8378
:100790008E8302C00FEF1FEFC801DF91CF911F9131
:1007A0000F910895FA01AA27283051F1203181F1E3
:1007B000E8946F936E7F6E5F7F4F8F4F9F4FAF4F69
:1007C000B1E03ED0B4E03CD0670F781F891F9A1F7C
:1007D000A11D680F791F8A1F911DA11D6A0F711D30
:1007E000811D911DA11D20D009F468943F912AE03C
:1007F000269F11243019305D3193DEF6CF01089524
:10080000462F4770405D4193B3E00FD0C9F7F6CF54
:10081000462F4F70405D4A3318F0495D31FD40521C
:10082000419302D0A9F7EACFB4E0A69597958795B2
:1008300077956795BA95C9F7009761057105089591
:100840009B01AC010A2E069457954795379527953D
:10085000BA95C9F7620F731F841F951FA01D0895D5
:04086000F894FFCF3A
:100864002530346400C0F9A4B0999282F8809000D5
:00000001FF
