:1000000045C0000058C0000056C0000054C00000A9
:1000100052C0000050C000004EC000004CC00000A4
:100020004AC0000048C0000046C0000044C00000B4
:1000300042C0000040C000003EC000003CC00000C4
:100040003AC0000038C0000036C0000034C00000D4
:1000500032C0000030C000002EC000002CC00000E4
:100060002AC0000028C0000026C0000024C00000F4
:1000700022C0000020C000001EC000001CC0000004
:100080001AC0000018C0000016C0000011241FBED6
:10009000CFEFD0E1DEBFCDBF12E0A0E0B1E0EAE9F2
:1000A000F1E000E00BBF02C007900D92A232B10751
:1000B000D9F75CD070C0A4CF88E18AB996E090935C
:1000C000950087E689B928E020939A0090939D00D7
:1000D0008093990008955D9BFECF8CB908955F9B36
:1000E000FECF8CB10895CF93DF93EC0188818823F4
:1000F00029F02196F0DF89918111FCCFDF91CF911A
:100100000895EBE9F0E0908195FFFDCF80939C008E
:1001100008951F93CF93DF93182F8EE7F2DF8FEFB1
:10012000F0DF86E0EEDF812FECDF80E0EADF80E0C9
:10013000E8DF193039F080E0E4DFCBEFDEEFC11B00
:10014000D10904C082E0DDDFC0EFDEEF8D2FD9DF03
:100150008C2FD7DF8FEED5DFDF91CF911F910895E0
:100160008091000190910101BECF0895A5DF2FEF8E
:1001700083EC99E0215080409040E1F700C00000FE
:1001800089E0C7DFEDDFABDFE82FF0E0EF52FF4F94
:0A0190008081BFDFF7CFF894FFCFA6
:10019A000C010D160E010204050000000D0A3D3D7A
:1001AA003D3D3D3D3D3D3D3D3D3D3D3D3D3D3D3D75
:1001BA003D3D3D3D3D3D3D3D3D0D0A3D2031203A11
:1001CA0020506C6179204D757369632020202020AE
:1001DA0020202020203D0D0A3D2032203A20537451
:1001EA006F70204D75736963202020202020202005
:1001FA0020203D0D0A3D2033203A20506175736559
:10020A00204D757369632020202020202020203D66
:10021A000D0A3D2034203A204E657874204D7573BE
:10022A006963202020202020202020203D0D0A3D27
:10023A002035203A2050726576696F7573204D75A6
:10024A007369632020202020203D0D0A3D2036209E
:10025A003A20566F6C756D6520555020202020205D
:10026A002020202020203D0D0A3D2037203A20560C
:10027A006F6C756D6520444F574E2020202020203A
:10028A002020203D0D0A203D3D3D3D3D3D3D3D3D6B
:10029A003D3D3D3D3D3D3D3D3D3D3D3D3D3D3D3D84
:1002AA003D3D0D0A0D0A436F6D6D616E64203E205F
:0202BA00000042
:00000001FF
