S0170000434C4344346269745F5368696674322E73726563F5
S113000045C0000058C0000056C0000054C00000A5
S113001052C0000050C000004EC000004CC00000A0
S11300204AC0000048C0000046C0000044C00000B0
S113003042C0000040C000003EC000003CC00000C0
S11300403AC0000038C0000036C0000034C00000D0
S113005032C0000030C000002EC000002CC00000E0
S11300602AC0000028C0000026C0000024C00000F0
S113007022C0000020C000001EC000001CC0000000
S11300801AC0000018C0000016C0000011241FBED2
S1130090CFEFD0E1DEBFCDBF11E0A0E0B1E0E6EEEE
S11300A0F1E000E00BBF02C007900D92A232B1074D
S11300B0D9F787D096C0A4CFEFE3FFE13197F1F7EA
S11300C000C0000015BA95B3282F207F922B95BB52
S11300D0F5E0FA95F1F70000AA9A35E03A95F1F7C0
S11300E00000AA9815BA25B3E0E18E9FC00111243F
S11300F0822B85BBF5E0FA95F1F70000AA9A35E06A
S11301003A95F1F70000AA9808958FEF84BB15BAC9
S11301108FE59AEE0197F1F700C0000080E2CCDF92
S11301208FE19EE40197F1F700C0000080E2C4DF94
S11301308FE891E00197F1F700C0000080E2BCDF96
S113014088E2BADF8CE0B8DF81E0B6DF86E0B4CFC6
S11301500895EFE3FFE13197F1F700C0000021E0DB
S113016025BB95B3382F307F932B95BBF5E0FA95DB
S1130170F1F70000AA9A35E03A95F1F70000AA9841
S113018025BB25B3E0E18E9FC0011124822B85BBE2
S1130190F5E0FA95F1F70000AA9A35E03A95F1F7FF
S11301A00000AA980895CF93DF93EC0188818823F7
S11301B029F02196CEDF89918111FCCFDF91CF9177
S11301C00895A3DF80E091E0EEDF88E175DF2FEF93
S11301D085EA9EE0215080409040E1F700C0000095
S10901E0F4CFF894FFCFF8
S11301E648656C6C6F212120576F726C64202D2D2D
S11301F62041746D656C2041546D656761313238F8
S10502060000F2
S9030000FC
