S00F0000525842617369632E7372656389
S113000045C0000060C000005EC000005CC000008D
S11300105AC0000058C0000056C0000054C0000080
S113002052C0000050C000004EC000004CC0000090
S11300304AC0000048C0000046C0000044C00000A0
S113004042C0000040C0000051C000003CC000009D
S11300503AC0000038C0000036C0000034C00000C0
S113006032C0000030C000002EC000002CC00000D0
S11300702AC0000028C0000026C0000024C00000E0
S113008022C0000020C000001EC0000011241FBEBA
S1130090CFEFD0E1DEBFCDBF11E0A0E0B1E0E0E8FA
S11300A0F1E000E00BBF02C007900D92A030B10751
S11300B0D9F721E0A0E0B1E001C01D92A636B20755
S11300C0E1F742D05BC09CCF5D9BFECF8CB9089515
S11300D0CF93DF93EC018881882329F02196F4DF04
S11300E089918111FCCFDF91CF9108951F920F92D6
S11300F00FB60F9211240BB60F928F93AF93BF9349
S1130100EF93FF93E09101018CB1AE2FB0E0AE5FAD
S1130110BE4F8C93EF5FE09301018D3049F4F0E022
S1130120EF5FFE4F10821092010181E08093000185
S1130130FF91EF91BF91AF918F910F900BBE0F90F4
S11301400FBE0F901F9018958FEF87BB88E98AB96F
S113015086E08093950087E689B910920101109298
S113016000018FB780688FBF809100018130E1F773
S113017082E091E0ADDF10920001F6CFF894FFCF5A
S9030000FC
