:1000000045C0000060C000005EC000005CC0000091
:100010005AC0000058C0000056C0000054C0000084
:1000200052C0000050C000004EC000004CC0000094
:100030004AC0000048C0000046C0000044C00000A4
:1000400042C0000040C000003EC000003CC00000B4
:100050003AC0000038C0000036C0000034C00000C4
:1000600032C0000030C000002EC000002CC00000D4
:100070002AC0000028C0000026C0000024C00000E4
:1000800022C0000020C000001EC0000011241FBEBE
:10009000CFEFD0E1DEBFCDBF11E0A0E0B1E0E8E9F5
:1000A000F1E000E00BBF02C007900D92A433B1074E
:1000B000D9F721E0A4E3B1E001C01D92AA33B20751
:1000C000E1F702D067C09CCFE4E3F1E08EE091E07D
:1000D0009383828380E091E09183808387E690E040
:1000E00018D08CE191E026D05F9BFECFCCB182E3AB
:1000F00091E020D08FE98C0F8A3110F4C05205C0F6
:100100008FEB8C0F8A3108F4C05E5D9BFECFCCB9BB
:10011000EBCF9093900089B988E18AB986E080930B
:10012000950008955D9BFECF8CB908955F9BFECF2F
:100130008CB108950F931F93CF93DF93E091360115
:10014000F0913701238121FF1BC08C01D0E0C0E07A
:10015000F80181918F016091360170913701DB01C7
:100160001896ED91FC911997882331F00995892B08
:1001700079F3DFEFCFEFECCF8AE00995892B19F007
:100180008FEF9FEF02C08D2F9C2FDF91CF911F919A
:080190000F910895F894FFCFD0
:1001980000000001000000000000960000000000C0
:1001A8000002000000009200000000004361736537
:1001B80020436F6E76657274696E672052582F54AB
:0401C80058200D00AE
:00000001FF
