S011000054585F537472696E672E7372656391
S113000045C0000058C0000056C0000054C00000A5
S113001052C0000050C000004EC000004CC00000A0
S11300204AC0000048C0000046C0000044C00000B0
S113003042C0000040C000003EC000003CC00000C0
S11300403AC0000038C0000036C0000034C00000D0
S113005032C0000030C000002EC000002CC00000E0
S11300602AC0000028C0000026C0000024C00000F0
S113007022C0000020C000001EC000001CC0000000
S11300801AC0000018C0000016C0000011241FBED2
S1130090CFEFD0E1DEBFCDBF11E0A0E0B1E0E8E3F7
S11300A0F1E000E00BBF02C007900D92AE30B10743
S11300B0D9F71DD03FC0A4CF9093900089B988E0B0
S11300C08AB986E08093950008955D9BFECF8CB934
S11300D00895CF93DF93EC018881882329F021963A
S11300E0F4DF89918111FCCFDF91CF910895CF93F3
S11300F0DF93CDB7DEB72E970FB6F894DEBF0FBEF1
S1130100CDBF8EE0E0E0F1E0DE01119601900D92AA
S11301108A95E1F787E690E0CFDFCE010196D9DF3B
S11301202FEF83ED90E3215080409040E1F700C031
S10B01300000F3CFF894FFCFA7
S111013848656C6C6F20576F726C640D0A0082
S9030000FC
