:1000000045C0000058C0000056C0000054C00000A9
:1000100052C0000050C000004EC000004CC00000A4
:100020004AC0000048C0000046C0000044C00000B4
:1000300042C0000040C000003EC000003CC00000C4
:100040003AC0000038C0000036C0000034C00000D4
:1000500032C0000030C000002EC000002CC00000E4
:100060002AC0000028C0000026C0000024C00000F4
:1000700022C0000020C000001EC000001CC0000004
:100080001AC0000018C0000016C0000011241FBED6
:10009000CFEFD0E1DEBFCDBF11E0A0E0B1E0E0E501
:1000A000F1E000E00BBF02C007900D92A232B10751
:1000B000D9F71DD04BC0A4CF9093900089B988E0A8
:1000C0008AB986E08093950008955D9BFECF8CB938
:1000D0000895CF93DF93EC018881882329F021963E
:1000E000F4DF89918111FCCFDF91CF910895CF93F7
:1000F000DF93CDB7DEB72E970FB6F894DEBF0FBEF5
:10010000CDBF8EE0E3E1F1E0DE01119601900D92AA
:100110008A95E1F787E690E0CFDF80E091E0D9DFD4
:100120002FEF89E698E1215080409040E1F700C030
:100130000000CE010196CDDF2FEF89E698E1215036
:1001400080409040E1F700C00000E7CFF894FFCF77
:10015000426F6E6A6F7572206C65206D6F6E64659C
:100160000D0A0048656C6C6F20576F726C640D0A45
:0201700000008D
:00000001FF
