:1000000045C0000060C000005EC000005CC0000091
:100010005AC0000058C0000056C0000054C0000084
:1000200052C0000071C000004EC000004CC0000073
:100030004AC0000048C0000046C0000045C00000A3
:1000400042C0000040C000003EC000003CC00000B4
:100050003AC0000038C0000036C0000034C00000C4
:1000600032C0000030C000002EC000002CC00000D4
:100070002AC0000028C0000026C0000024C00000E4
:1000800022C0000020C000001EC0000011241FBEBE
:10009000CFEFD0E1DEBFCDBF11E0A0E0B1E0ECECEE
:1000A000F2E000E00BBF02C007900D92AC30B10748
:1000B000D9F721E0ACE0B1E001C01D92A231B20756
:1000C000E1F7D8D001C19CCF1F920F920FB60F92CB
:1000D00011248F9380910D018F5F80930D018530E6
:1000E00069F480910001880F803119F0809300013C
:1000F00003C081E08093000110920D018F910F9059
:100100000FBE0F901F9018951F920F920FB60F926F
:1001100011242F938F939F93AF93BF9380910C01E2
:100120008F5F80930C01843621F580910E019091B0
:100130000F01A0911001B09111010196A11DB11DF7
:10014000803127E29207A105B10549F080930E01A5
:1001500090930F01A0931001B093110108C0109269
:100160000E0110920F0110921001109211011092C5
:100170000C01BF91AF919F918F912F910F900FBE66
:100180000F901F9018958FEF8ABB84BB87B782684A
:1001900087BF83B78C6083BF85B58C6085BD89EFD1
:1001A00081BF83BD789408958230F1F018F48130D6
:1001B00039F00895843089F1883009F447C00895F2
:1001C00060910E0170910F018091100190911101C9
:1001D0002AE030E040E050E055D0FB01EF5FFE4FF9
:1001E000808180958BBB089560910E0170910F0105
:1001F000809110019091110124E630E040E050E040
:1002000041D02AE030E040E050E03CD0F901EF5F1F
:10021000FE4F808180958BBB089560910E01709197
:100220000F01809110019091110128EE33E040E020
:1002300050E028D024E630E040E050E023D0F9013F
:10024000EF5FFE4F808180958BBB089560910E011A
:1002500070910F01809110019091110128EE33E00F
:1002600040E050E00FD0F901EF5FFE4F80818095B4
:100270008BBB089588DF8091000185BB80910001D0
:1002800093DFF9CFA1E21A2EAA1BBB1BFD010DC003
:10029000AA1FBB1FEE1FFF1FA217B307E407F50736
:1002A00020F0A21BB30BE40BF50B661F771F881F12
:1002B000991F1A9469F760957095809590959B01A8
:0C02C000AC01BD01CF010895F894FFCF00
:0C02CC00013F065B4F666D7C077F6F00F2
:00000001FF
