:1000000045C0000053C0000051C0000050C00000B7
:1000100066C000004BC0000049C0000047C000009F
:1000200045C0000043C0000041C000003FC00000C8
:100030003DC000003BC0000039C0000063C00000AC
:1000400035C0000033C0000031C000002FC00000E8
:100050002DC000002BC0000029C0000027C00000F8
:1000600025C0000023C0000021C000001FC0000008
:100070001DC000001BC0000019C0000017C0000018
:1000800015C0000013C0000011C0000011241FBEE5
:10009000CFEFD0E1DEBFCDBF21E0A0E0B1E001C0F5
:1000A0001D92A230B207E1F76CD06DC0A9CF1F92AC
:1000B0000F920FB60F9211248F93809101018F5FE1
:1000C0008093010180910101853118F084E18093D2
:1000D00001018F910F900FBE0F901F9018951F92E6
:1000E0000F920FB60F9211248F93809101018150CE
:1000F00080930101809101018F910F900FBE0F90AD
:100100001F9018951F920F920FB60F9211242F93E4
:100110003F938F939F93809100018F5F80930001A5
:10012000883C21F4109200018FEF82BB20910001E6
:100130008091010130E090E00596821793070CF45E
:1001400012BA9F918F913F912F910F900FBE0F90F8
:100150001F9018958FEF87BB11BA8CE082BBEAE63F
:10016000F0E08081806A808389B78C6089BF83B723
:100170008A6083BF87B7826087BF87EC81BF78942E
:0A0180000895E8DFFFCFF894FFCFE9
:00000001FF
