:1000000045C0000053C0000051C0000050C00000B7
:1000100066C000004BC0000049C0000047C000009F
:1000200045C0000043C0000041C000003FC00000C8
:100030003DC000003BC0000039C0000063C00000AC
:1000400035C0000033C0000031C000002FC00000E8
:100050002DC000002BC0000029C0000027C00000F8
:1000600025C0000023C0000021C000001FC0000008
:100070001DC000001BC0000019C0000017C0000018
:1000800015C0000013C0000011C0000011241FBEE5
:10009000CFEFD0E1DEBFCDBF21E0A0E0B1E001C0F5
:1000A0001D92A330B207E1F774D075C0A9CF1F929B
:1000B0000F920FB60F9211248F93809102018F5FE0
:1000C0008093020180910201853118F084E18093D0
:1000D00002018F910F900FBE0F901F9018951F92E5
:1000E0000F920FB60F9211248F93809102018150CD
:1000F00080930201809102018F910F900FBE0F90AB
:100100001F9018951F920F920FB60F9211242F93E4
:100110003F938F939F9380910001909101010196ED
:100120009093010180930001883C910531F4109275
:100130000101109200018FEF82BB8091020120919A
:1001400000013091010190E005968217930708F4B1
:1001500012BA9F918F913F912F910F900FBE0F90E8
:100160001F9018958FEF87BB11BA8CE082BBEAE62F
:10017000F0E08081806A808389B78C6089BF83B713
:100180008A6083BF87B7826087BF87EC81BF78941E
:0A0190000895E8DFFFCFF894FFCFD9
:00000001FF
